{
  "contractName": "ERC721",
  "abi": [
    {
      "anonymous": false,
      "inputs": [
        {
          "indexed": true,
          "internalType": "address",
          "name": "owner",
          "type": "address"
        },
        {
          "indexed": true,
          "internalType": "address",
          "name": "approved",
          "type": "address"
        },
        {
          "indexed": true,
          "internalType": "uint256",
          "name": "tokenId",
          "type": "uint256"
        }
      ],
      "name": "Approval",
      "type": "event"
    },
    {
      "anonymous": false,
      "inputs": [
        {
          "indexed": true,
          "internalType": "address",
          "name": "owner",
          "type": "address"
        },
        {
          "indexed": true,
          "internalType": "address",
          "name": "operator",
          "type": "address"
        },
        {
          "indexed": false,
          "internalType": "bool",
          "name": "approved",
          "type": "bool"
        }
      ],
      "name": "ApprovalForAll",
      "type": "event"
    },
    {
      "anonymous": false,
      "inputs": [
        {
          "indexed": true,
          "internalType": "address",
          "name": "from",
          "type": "address"
        },
        {
          "indexed": true,
          "internalType": "address",
          "name": "to",
          "type": "address"
        },
        {
          "indexed": true,
          "internalType": "uint256",
          "name": "tokenId",
          "type": "uint256"
        }
      ],
      "name": "Transfer",
      "type": "event"
    },
    {
      "anonymous": false,
      "inputs": [
        {
          "indexed": false,
          "internalType": "uint256",
          "name": "sailorId",
          "type": "uint256"
        },
        {
          "indexed": false,
          "internalType": "string",
          "name": "name",
          "type": "string"
        },
        {
          "indexed": false,
          "internalType": "string",
          "name": "color",
          "type": "string"
        },
        {
          "indexed": false,
          "internalType": "uint256",
          "name": "age",
          "type": "uint256"
        }
      ],
      "name": "newSailor",
      "type": "event"
    },
    {
      "inputs": [
        {
          "internalType": "uint256",
          "name": "",
          "type": "uint256"
        }
      ],
      "name": "owner",
      "outputs": [
        {
          "internalType": "address",
          "name": "",
          "type": "address"
        }
      ],
      "stateMutability": "view",
      "type": "function",
      "constant": true
    },
    {
      "inputs": [
        {
          "internalType": "uint256",
          "name": "",
          "type": "uint256"
        }
      ],
      "name": "sailorSenshies",
      "outputs": [
        {
          "internalType": "string",
          "name": "name",
          "type": "string"
        },
        {
          "internalType": "string",
          "name": "color",
          "type": "string"
        },
        {
          "internalType": "uint256",
          "name": "age",
          "type": "uint256"
        }
      ],
      "stateMutability": "view",
      "type": "function",
      "constant": true
    },
    {
      "inputs": [
        {
          "internalType": "address",
          "name": "_owner",
          "type": "address"
        }
      ],
      "name": "balanceOf",
      "outputs": [
        {
          "internalType": "uint256",
          "name": "",
          "type": "uint256"
        }
      ],
      "stateMutability": "view",
      "type": "function",
      "constant": true
    },
    {
      "inputs": [
        {
          "internalType": "uint256",
          "name": "_tokenId",
          "type": "uint256"
        }
      ],
      "name": "ownerOf",
      "outputs": [
        {
          "internalType": "address",
          "name": "_owner",
          "type": "address"
        }
      ],
      "stateMutability": "view",
      "type": "function",
      "constant": true
    },
    {
      "inputs": [],
      "name": "getAllSailors",
      "outputs": [
        {
          "internalType": "uint256",
          "name": "allItems",
          "type": "uint256"
        }
      ],
      "stateMutability": "view",
      "type": "function",
      "constant": true
    },
    {
      "inputs": [
        {
          "internalType": "uint256",
          "name": "_tokenId",
          "type": "uint256"
        }
      ],
      "name": "getApproved",
      "outputs": [
        {
          "internalType": "address",
          "name": "operator",
          "type": "address"
        }
      ],
      "stateMutability": "view",
      "type": "function",
      "constant": true
    },
    {
      "inputs": [
        {
          "internalType": "address",
          "name": "_to",
          "type": "address"
        },
        {
          "internalType": "uint256",
          "name": "_tokenId",
          "type": "uint256"
        }
      ],
      "name": "transfer",
      "outputs": [
        {
          "internalType": "bool",
          "name": "success",
          "type": "bool"
        }
      ],
      "stateMutability": "nonpayable",
      "type": "function"
    },
    {
      "inputs": [
        {
          "internalType": "address",
          "name": "_from",
          "type": "address"
        },
        {
          "internalType": "address",
          "name": "_to",
          "type": "address"
        },
        {
          "internalType": "uint256",
          "name": "_tokenId",
          "type": "uint256"
        }
      ],
      "name": "transferFrom",
      "outputs": [
        {
          "internalType": "bool",
          "name": "success",
          "type": "bool"
        }
      ],
      "stateMutability": "payable",
      "type": "function",
      "payable": true
    }
  ],
  "bytecode": "0x608060405234801561001057600080fd5b50610c04806100206000396000f3fe60806040526004361061007b5760003560e01c806370a082311161004e57806370a0823114610155578063a123c33e14610192578063a9059cbb146101cf578063edaa54bc1461020c5761007b565b806303e8de3914610080578063081812fc146100ab57806323b872dd146100e85780636352211e14610118575b600080fd5b34801561008c57600080fd5b5061009561024b565b6040516100a291906109da565b60405180910390f35b3480156100b757600080fd5b506100d260048036038101906100cd919061084a565b610257565b6040516100df919061093f565b60405180910390f35b61010260048036038101906100fd91906107bf565b610294565b60405161010f919061095a565b60405180910390f35b34801561012457600080fd5b5061013f600480360381019061013a919061084a565b610499565b60405161014c919061093f565b60405180910390f35b34801561016157600080fd5b5061017c60048036038101906101779190610796565b6104d6565b60405161018991906109da565b60405180910390f35b34801561019e57600080fd5b506101b960048036038101906101b4919061084a565b61051f565b6040516101c6919061093f565b60405180910390f35b3480156101db57600080fd5b506101f660048036038101906101f1919061080e565b610552565b604051610203919061095a565b60405180910390f35b34801561021857600080fd5b50610233600480360381019061022e919061084a565b6105b6565b60405161024293929190610975565b60405180910390f35b60008080549050905090565b60006003600083815260200190815260200160002060009054906101000a900473ffffffffffffffffffffffffffffffffffffffff169050919050565b60008373ffffffffffffffffffffffffffffffffffffffff166001600084815260200190815260200160002060009054906101000a900473ffffffffffffffffffffffffffffffffffffffff1673ffffffffffffffffffffffffffffffffffffffff1614610337576040517f08c379a000000000000000000000000000000000000000000000000000000000815260040161032e906109ba565b60405180910390fd5b826001600084815260200190815260200160002060006101000a81548173ffffffffffffffffffffffffffffffffffffffff021916908373ffffffffffffffffffffffffffffffffffffffff160217905550600260008473ffffffffffffffffffffffffffffffffffffffff1673ffffffffffffffffffffffffffffffffffffffff16815260200190815260200160002060008154809291906103d990610ae8565b9190505550600260008573ffffffffffffffffffffffffffffffffffffffff1673ffffffffffffffffffffffffffffffffffffffff168152602001908152602001600020600081548092919061042e90610a8c565b9190505550818373ffffffffffffffffffffffffffffffffffffffff168573ffffffffffffffffffffffffffffffffffffffff167fddf252ad1be2c89b69c2b068fc378daa952ba7f163c4a11628f55a4df523b3ef60405160405180910390a4600190509392505050565b60006001600083815260200190815260200160002060009054906101000a900473ffffffffffffffffffffffffffffffffffffffff169050919050565b6000600260008373ffffffffffffffffffffffffffffffffffffffff1673ffffffffffffffffffffffffffffffffffffffff168152602001908152602001600020549050919050565b60016020528060005260406000206000915054906101000a900473ffffffffffffffffffffffffffffffffffffffff1681565b60003073ffffffffffffffffffffffffffffffffffffffff168373ffffffffffffffffffffffffffffffffffffffff16141561058d57600080fd5b6105973383610700565b6105a057600080fd5b6105ab338484610294565b506001905092915050565b600081815481106105c657600080fd5b90600052602060002090600302016000915090508060000180546105e990610ab6565b80601f016020809104026020016040519081016040528092919081815260200182805461061590610ab6565b80156106625780601f1061063757610100808354040283529160200191610662565b820191906000526020600020905b81548152906001019060200180831161064557829003601f168201915b50505050509080600101805461067790610ab6565b80601f01602080910402602001604051908101604052809291908181526020018280546106a390610ab6565b80156106f05780601f106106c5576101008083540402835291602001916106f0565b820191906000526020600020905b8154815290600101906020018083116106d357829003601f168201915b5050505050908060020154905083565b60008273ffffffffffffffffffffffffffffffffffffffff166001600084815260200190815260200160002060009054906101000a900473ffffffffffffffffffffffffffffffffffffffff1673ffffffffffffffffffffffffffffffffffffffff1614905092915050565b60008135905061077b81610ba0565b92915050565b60008135905061079081610bb7565b92915050565b6000602082840312156107a857600080fd5b60006107b68482850161076c565b91505092915050565b6000806000606084860312156107d457600080fd5b60006107e28682870161076c565b93505060206107f38682870161076c565b925050604061080486828701610781565b9150509250925092565b6000806040838503121561082157600080fd5b600061082f8582860161076c565b925050602061084085828601610781565b9150509250929050565b60006020828403121561085c57600080fd5b600061086a84828501610781565b91505092915050565b61087c81610a11565b82525050565b61088b81610a23565b82525050565b600061089c826109f5565b6108a68185610a00565b93506108b6818560208601610a59565b6108bf81610b8f565b840191505092915050565b60006108d7602383610a00565b91507f43616e6e6f74207472616e736665722c20746f6b656e206973206e6f74206f7760008301527f6e656400000000000000000000000000000000000000000000000000000000006020830152604082019050919050565b61093981610a4f565b82525050565b60006020820190506109546000830184610873565b92915050565b600060208201905061096f6000830184610882565b92915050565b6000606082019050818103600083015261098f8186610891565b905081810360208301526109a38185610891565b90506109b26040830184610930565b949350505050565b600060208201905081810360008301526109d3816108ca565b9050919050565b60006020820190506109ef6000830184610930565b92915050565b600081519050919050565b600082825260208201905092915050565b6000610a1c82610a2f565b9050919050565b60008115159050919050565b600073ffffffffffffffffffffffffffffffffffffffff82169050919050565b6000819050919050565b60005b83811015610a77578082015181840152602081019050610a5c565b83811115610a86576000848401525b50505050565b6000610a9782610a4f565b91506000821415610aab57610aaa610b31565b5b600182039050919050565b60006002820490506001821680610ace57607f821691505b60208210811415610ae257610ae1610b60565b5b50919050565b6000610af382610a4f565b91507fffffffffffffffffffffffffffffffffffffffffffffffffffffffffffffffff821415610b2657610b25610b31565b5b600182019050919050565b7f4e487b7100000000000000000000000000000000000000000000000000000000600052601160045260246000fd5b7f4e487b7100000000000000000000000000000000000000000000000000000000600052602260045260246000fd5b6000601f19601f8301169050919050565b610ba981610a11565b8114610bb457600080fd5b50565b610bc081610a4f565b8114610bcb57600080fd5b5056fea2646970667358221220d5d515bd03d9ce0ecf9f107fbe85f544ae9a90ec7d49a3087dd774efd9d084bb64736f6c63430008000033",
  "immutableReferences": {},
  "source": "pragma solidity >=0.4.22 <0.9.0;\n\ncontract ERC721 {\n    // EVENTS\n\n    event Transfer(\n        address indexed from,\n        address indexed to,\n        uint256 indexed tokenId\n    );\n    event Approval(\n        address indexed owner,\n        address indexed approved,\n        uint256 indexed tokenId\n    );\n    event ApprovalForAll(\n        address indexed owner,\n        address indexed operator,\n        bool approved\n    );\n    event newSailor(uint256 sailorId, string name, string color, uint256 age);\n\n    // NFT struct\n\n    struct SaliorMoon {\n        string name;\n        string color;\n        uint256 age;\n    }\n\n    // Declaring the array that contains the items\n    SaliorMoon[] public sailorSenshies;\n\n    //Mappings\n\n    mapping(uint256 => address) public owner; // mapping points to owner\n\n    mapping(address => uint256) howManyItems; // mapping points to how many items does an addres owns\n\n    mapping(uint256 => address) private tokenApprovals; // mapping from token ID to approved address\n\n    mapping(address => mapping(address => bool)) private operatorApprovals; // mapping from owner to operator approvals\n\n    // Modifiers\n\n    // modifier NonZeroAddress {\n    //     // this is a modifier for the transfer functions so we make sure we aren't transferig to a 0 address\n\n    //     require(_to != address(0), \"Transfer to zero address is not possible\");\n    //     _;\n    // }\n\n    // creating our unique item\n\n    function createSailorMoon(\n        string memory _name,\n        string memory _color,\n        uint256 _age\n    ) private {\n        sailorSenshies.push(SaliorMoon(_name, _color, _age));\n        uint256 newSailorId = sailorSenshies.length - 1;\n        emit newSailor(newSailorId, _name, _color, _age);\n    }\n\n    // Non-modifying functions\n    function balanceOf(address _owner) public view returns (uint256) {\n        return howManyItems[_owner];\n    }\n\n    function ownerOf(uint256 _tokenId) public view returns (address _owner) {\n        return owner[_tokenId];\n    }\n\n    function getAllSailors() public view returns (uint256 allItems) {\n        return sailorSenshies.length;\n    }\n\n    function getApproved(uint256 _tokenId)\n        external\n        view\n        returns (address operator)\n    {\n        return tokenApprovals[_tokenId];\n    }\n\n    // Modifying functions\n    function transfer(address _to, uint256 _tokenId)\n        external\n        returns (bool success)\n    {\n        require(_to != address(this));\n        require(isOwner(msg.sender, _tokenId));\n\n        transferFrom(msg.sender, _to, _tokenId);\n\n        return true;\n    }\n\n    function transferFrom(\n        address _from,\n        address _to,\n        uint256 _tokenId\n    ) public payable returns (bool success) {\n        require(\n            owner[_tokenId] == _from,\n            \"Cannot transfer, token is not owned\"\n        );\n\n        owner[_tokenId] = _to;\n        howManyItems[_to]++;\n\n        howManyItems[_from]--;\n        emit Transfer(_from, _to, _tokenId);\n\n        return true;\n    }\n\n    // function approve(address _to, uint256 _tokenId) external {}\n\n    // function setApprovalForAll(address _operator, bool _approved) external {\n    //     return (tokenApprovals[_operator] == true);\n    // }\n\n    // function mint(address _to, uint256 tokenID) external {}\n\n    function isOwner(address _claimant, uint256 _tokenId)\n        internal\n        view\n        returns (bool)\n    {\n        return owner[_tokenId] == _claimant;\n    }\n}\n",
  "sourcePath": "/Users/cryptogirl/Documents/Solidity/Linum_assignment/contracts/ERC721.sol",
  "compiler": {
    "name": "solc",
    "version": "0.8.0+commit.c7dfd78e.Emscripten.clang"
  },
  "schemaVersion": "3.3.3",
  "updatedAt": "2021-05-10T14:21:11.064Z",
  "networkType": "ethereum",
  "devdoc": {
    "kind": "dev",
    "methods": {},
    "version": 1
  },
  "userdoc": {
    "kind": "user",
    "methods": {},
    "version": 1
  }
}